{
	"contracts/cal.sol": {
		"Calculator": {
			"abi": [
				{
					"inputs": [],
					"name": "add",
					"outputs": [
						{
							"internalType": "uint256",
							"name": "ans",
							"type": "uint256"
						}
					],
					"stateMutability": "view",
					"type": "function"
				},
				{
					"inputs": [],
					"name": "divide",
					"outputs": [
						{
							"internalType": "uint256",
							"name": "ans",
							"type": "uint256"
						}
					],
					"stateMutability": "view",
					"type": "function"
				},
				{
					"inputs": [],
					"name": "multiply",
					"outputs": [
						{
							"internalType": "uint256",
							"name": "ans",
							"type": "uint256"
						}
					],
					"stateMutability": "view",
					"type": "function"
				},
				{
					"inputs": [],
					"name": "subtract",
					"outputs": [
						{
							"internalType": "uint256",
							"name": "ans",
							"type": "uint256"
						}
					],
					"stateMutability": "view",
					"type": "function"
				}
			],
			"devdoc": {
				"kind": "dev",
				"methods": {},
				"version": 1
			},
			"evm": {
				"assembly": "    /* \"contracts/cal.sol\":60:738  contract Calculator {... */\n  mstore(0x40, 0x80)\n  callvalue\n  dup1\n  iszero\n  tag_1\n  jumpi\n  0x00\n  dup1\n  revert\ntag_1:\n  pop\n  dataSize(sub_0)\n  dup1\n  dataOffset(sub_0)\n  0x00\n  codecopy\n  0x00\n  return\nstop\n\nsub_0: assembly {\n        /* \"contracts/cal.sol\":60:738  contract Calculator {... */\n      mstore(0x40, 0x80)\n      callvalue\n      dup1\n      iszero\n      tag_1\n      jumpi\n      0x00\n      dup1\n      revert\n    tag_1:\n      pop\n      jumpi(tag_2, lt(calldatasize, 0x04))\n      shr(0xe0, calldataload(0x00))\n      dup1\n      0x4f2be91f\n      eq\n      tag_3\n      jumpi\n      dup1\n      0x6deebae3\n      eq\n      tag_4\n      jumpi\n      dup1\n      0xb53b8d7a\n      eq\n      tag_5\n      jumpi\n      dup1\n      0xf3593cd0\n      eq\n      tag_6\n      jumpi\n    tag_2:\n      0x00\n      dup1\n      revert\n        /* \"contracts/cal.sol\":113:209  function add() public view returns (uint ans) {... */\n    tag_3:\n      tag_7\n      tag_8\n      jump\t// in\n    tag_7:\n      mload(0x40)\n      tag_9\n      swap2\n      swap1\n      tag_10\n      jump\t// in\n    tag_9:\n      mload(0x40)\n      dup1\n      swap2\n      sub\n      swap1\n      return\n        /* \"contracts/cal.sol\":271:372  function subtract() public view returns (uint ans) {... */\n    tag_4:\n      tag_11\n      tag_12\n      jump\t// in\n    tag_11:\n      mload(0x40)\n      tag_13\n      swap2\n      swap1\n      tag_10\n      jump\t// in\n    tag_13:\n      mload(0x40)\n      dup1\n      swap2\n      sub\n      swap1\n      return\n        /* \"contracts/cal.sol\":578:735  function divide() public view returns (uint ans) {... */\n    tag_5:\n      tag_14\n      tag_15\n      jump\t// in\n    tag_14:\n      mload(0x40)\n      tag_16\n      swap2\n      swap1\n      tag_10\n      jump\t// in\n    tag_16:\n      mload(0x40)\n      dup1\n      swap2\n      sub\n      swap1\n      return\n        /* \"contracts/cal.sol\":422:520  function multiply() public view returns (uint ans) {... */\n    tag_6:\n      tag_17\n      tag_18\n      jump\t// in\n    tag_17:\n      mload(0x40)\n      tag_19\n      swap2\n      swap1\n      tag_10\n      jump\t// in\n    tag_19:\n      mload(0x40)\n      dup1\n      swap2\n      sub\n      swap1\n      return\n        /* \"contracts/cal.sol\":113:209  function add() public view returns (uint ans) {... */\n    tag_8:\n        /* \"contracts/cal.sol\":149:157  uint ans */\n      0x00\n        /* \"contracts/cal.sol\":179:180  b */\n      sload(0x01)\n        /* \"contracts/cal.sol\":175:176  a */\n      sload(0x00)\n        /* \"contracts/cal.sol\":175:180  a + b */\n      tag_21\n      swap2\n      swap1\n      tag_22\n      jump\t// in\n    tag_21:\n        /* \"contracts/cal.sol\":170:180  ans= a + b */\n      swap1\n      pop\n        /* \"contracts/cal.sol\":113:209  function add() public view returns (uint ans) {... */\n      swap1\n      jump\t// out\n        /* \"contracts/cal.sol\":271:372  function subtract() public view returns (uint ans) {... */\n    tag_12:\n        /* \"contracts/cal.sol\":312:320  uint ans */\n      0x00\n        /* \"contracts/cal.sol\":342:343  b */\n      sload(0x01)\n        /* \"contracts/cal.sol\":338:339  a */\n      sload(0x00)\n        /* \"contracts/cal.sol\":338:343  a - b */\n      tag_24\n      swap2\n      swap1\n      tag_25\n      jump\t// in\n    tag_24:\n        /* \"contracts/cal.sol\":332:343  ans=  a - b */\n      swap1\n      pop\n        /* \"contracts/cal.sol\":271:372  function subtract() public view returns (uint ans) {... */\n      swap1\n      jump\t// out\n        /* \"contracts/cal.sol\":578:735  function divide() public view returns (uint ans) {... */\n    tag_15:\n        /* \"contracts/cal.sol\":617:625  uint ans */\n      0x00\n        /* \"contracts/cal.sol\":651:652  0 */\n      dup1\n        /* \"contracts/cal.sol\":646:647  b */\n      sload(0x01)\n        /* \"contracts/cal.sol\":646:652  b != 0 */\n      sub\n        /* \"contracts/cal.sol\":638:688  require(b != 0, \"Division by zero is not allowed\") */\n      tag_27\n      jumpi\n      mload(0x40)\n      0x08c379a000000000000000000000000000000000000000000000000000000000\n      dup2\n      mstore\n      0x04\n      add\n      tag_28\n      swap1\n      tag_29\n      jump\t// in\n    tag_28:\n      mload(0x40)\n      dup1\n      swap2\n      sub\n      swap1\n      revert\n    tag_27:\n        /* \"contracts/cal.sol\":705:706  b */\n      sload(0x01)\n        /* \"contracts/cal.sol\":703:704  a */\n      sload(0x00)\n        /* \"contracts/cal.sol\":703:706  a/b */\n      tag_30\n      swap2\n      swap1\n      tag_31\n      jump\t// in\n    tag_30:\n        /* \"contracts/cal.sol\":699:706  ans=a/b */\n      swap1\n      pop\n        /* \"contracts/cal.sol\":578:735  function divide() public view returns (uint ans) {... */\n      swap1\n      jump\t// out\n        /* \"contracts/cal.sol\":422:520  function multiply() public view returns (uint ans) {... */\n    tag_18:\n        /* \"contracts/cal.sol\":463:471  uint ans */\n      0x00\n        /* \"contracts/cal.sol\":490:491  b */\n      sload(0x01)\n        /* \"contracts/cal.sol\":488:489  a */\n      sload(0x00)\n        /* \"contracts/cal.sol\":488:491  a*b */\n      tag_33\n      swap2\n      swap1\n      tag_34\n      jump\t// in\n    tag_33:\n        /* \"contracts/cal.sol\":484:491  ans=a*b */\n      swap1\n      pop\n        /* \"contracts/cal.sol\":422:520  function multiply() public view returns (uint ans) {... */\n      swap1\n      jump\t// out\n        /* \"#utility.yul\":7:84   */\n    tag_35:\n        /* \"#utility.yul\":44:51   */\n      0x00\n        /* \"#utility.yul\":73:78   */\n      dup2\n        /* \"#utility.yul\":62:78   */\n      swap1\n      pop\n        /* \"#utility.yul\":7:84   */\n      swap2\n      swap1\n      pop\n      jump\t// out\n        /* \"#utility.yul\":90:208   */\n    tag_36:\n        /* \"#utility.yul\":177:201   */\n      tag_45\n        /* \"#utility.yul\":195:200   */\n      dup2\n        /* \"#utility.yul\":177:201   */\n      tag_35\n      jump\t// in\n    tag_45:\n        /* \"#utility.yul\":172:175   */\n      dup3\n        /* \"#utility.yul\":165:202   */\n      mstore\n        /* \"#utility.yul\":90:208   */\n      pop\n      pop\n      jump\t// out\n        /* \"#utility.yul\":214:436   */\n    tag_10:\n        /* \"#utility.yul\":307:311   */\n      0x00\n        /* \"#utility.yul\":345:347   */\n      0x20\n        /* \"#utility.yul\":334:343   */\n      dup3\n        /* \"#utility.yul\":330:348   */\n      add\n        /* \"#utility.yul\":322:348   */\n      swap1\n      pop\n        /* \"#utility.yul\":358:429   */\n      tag_47\n        /* \"#utility.yul\":426:427   */\n      0x00\n        /* \"#utility.yul\":415:424   */\n      dup4\n        /* \"#utility.yul\":411:428   */\n      add\n        /* \"#utility.yul\":402:408   */\n      dup5\n        /* \"#utility.yul\":358:429   */\n      tag_36\n      jump\t// in\n    tag_47:\n        /* \"#utility.yul\":214:436   */\n      swap3\n      swap2\n      pop\n      pop\n      jump\t// out\n        /* \"#utility.yul\":442:622   */\n    tag_37:\n        /* \"#utility.yul\":490:567   */\n      0x4e487b7100000000000000000000000000000000000000000000000000000000\n        /* \"#utility.yul\":487:488   */\n      0x00\n        /* \"#utility.yul\":480:568   */\n      mstore\n        /* \"#utility.yul\":587:591   */\n      0x11\n        /* \"#utility.yul\":584:585   */\n      0x04\n        /* \"#utility.yul\":577:592   */\n      mstore\n        /* \"#utility.yul\":611:615   */\n      0x24\n        /* \"#utility.yul\":608:609   */\n      0x00\n        /* \"#utility.yul\":601:616   */\n      revert\n        /* \"#utility.yul\":628:819   */\n    tag_22:\n        /* \"#utility.yul\":668:671   */\n      0x00\n        /* \"#utility.yul\":687:707   */\n      tag_50\n        /* \"#utility.yul\":705:706   */\n      dup3\n        /* \"#utility.yul\":687:707   */\n      tag_35\n      jump\t// in\n    tag_50:\n        /* \"#utility.yul\":682:707   */\n      swap2\n      pop\n        /* \"#utility.yul\":721:741   */\n      tag_51\n        /* \"#utility.yul\":739:740   */\n      dup4\n        /* \"#utility.yul\":721:741   */\n      tag_35\n      jump\t// in\n    tag_51:\n        /* \"#utility.yul\":716:741   */\n      swap3\n      pop\n        /* \"#utility.yul\":764:765   */\n      dup3\n        /* \"#utility.yul\":761:762   */\n      dup3\n        /* \"#utility.yul\":757:766   */\n      add\n        /* \"#utility.yul\":750:766   */\n      swap1\n      pop\n        /* \"#utility.yul\":785:788   */\n      dup1\n        /* \"#utility.yul\":782:783   */\n      dup3\n        /* \"#utility.yul\":779:789   */\n      gt\n        /* \"#utility.yul\":776:812   */\n      iszero\n      tag_52\n      jumpi\n        /* \"#utility.yul\":792:810   */\n      tag_53\n      tag_37\n      jump\t// in\n    tag_53:\n        /* \"#utility.yul\":776:812   */\n    tag_52:\n        /* \"#utility.yul\":628:819   */\n      swap3\n      swap2\n      pop\n      pop\n      jump\t// out\n        /* \"#utility.yul\":825:1019   */\n    tag_25:\n        /* \"#utility.yul\":865:869   */\n      0x00\n        /* \"#utility.yul\":885:905   */\n      tag_55\n        /* \"#utility.yul\":903:904   */\n      dup3\n        /* \"#utility.yul\":885:905   */\n      tag_35\n      jump\t// in\n    tag_55:\n        /* \"#utility.yul\":880:905   */\n      swap2\n      pop\n        /* \"#utility.yul\":919:939   */\n      tag_56\n        /* \"#utility.yul\":937:938   */\n      dup4\n        /* \"#utility.yul\":919:939   */\n      tag_35\n      jump\t// in\n    tag_56:\n        /* \"#utility.yul\":914:939   */\n      swap3\n      pop\n        /* \"#utility.yul\":963:964   */\n      dup3\n        /* \"#utility.yul\":960:961   */\n      dup3\n        /* \"#utility.yul\":956:965   */\n      sub\n        /* \"#utility.yul\":948:965   */\n      swap1\n      pop\n        /* \"#utility.yul\":987:988   */\n      dup2\n        /* \"#utility.yul\":981:985   */\n      dup2\n        /* \"#utility.yul\":978:989   */\n      gt\n        /* \"#utility.yul\":975:1012   */\n      iszero\n      tag_57\n      jumpi\n        /* \"#utility.yul\":992:1010   */\n      tag_58\n      tag_37\n      jump\t// in\n    tag_58:\n        /* \"#utility.yul\":975:1012   */\n    tag_57:\n        /* \"#utility.yul\":825:1019   */\n      swap3\n      swap2\n      pop\n      pop\n      jump\t// out\n        /* \"#utility.yul\":1025:1194   */\n    tag_38:\n        /* \"#utility.yul\":1109:1120   */\n      0x00\n        /* \"#utility.yul\":1143:1149   */\n      dup3\n        /* \"#utility.yul\":1138:1141   */\n      dup3\n        /* \"#utility.yul\":1131:1150   */\n      mstore\n        /* \"#utility.yul\":1183:1187   */\n      0x20\n        /* \"#utility.yul\":1178:1181   */\n      dup3\n        /* \"#utility.yul\":1174:1188   */\n      add\n        /* \"#utility.yul\":1159:1188   */\n      swap1\n      pop\n        /* \"#utility.yul\":1025:1194   */\n      swap3\n      swap2\n      pop\n      pop\n      jump\t// out\n        /* \"#utility.yul\":1200:1381   */\n    tag_39:\n        /* \"#utility.yul\":1340:1373   */\n      0x4469766973696f6e206279207a65726f206973206e6f7420616c6c6f77656400\n        /* \"#utility.yul\":1336:1337   */\n      0x00\n        /* \"#utility.yul\":1328:1334   */\n      dup3\n        /* \"#utility.yul\":1324:1338   */\n      add\n        /* \"#utility.yul\":1317:1374   */\n      mstore\n        /* \"#utility.yul\":1200:1381   */\n      pop\n      jump\t// out\n        /* \"#utility.yul\":1387:1753   */\n    tag_40:\n        /* \"#utility.yul\":1529:1532   */\n      0x00\n        /* \"#utility.yul\":1550:1617   */\n      tag_62\n        /* \"#utility.yul\":1614:1616   */\n      0x1f\n        /* \"#utility.yul\":1609:1612   */\n      dup4\n        /* \"#utility.yul\":1550:1617   */\n      tag_38\n      jump\t// in\n    tag_62:\n        /* \"#utility.yul\":1543:1617   */\n      swap2\n      pop\n        /* \"#utility.yul\":1626:1719   */\n      tag_63\n        /* \"#utility.yul\":1715:1718   */\n      dup3\n        /* \"#utility.yul\":1626:1719   */\n      tag_39\n      jump\t// in\n    tag_63:\n        /* \"#utility.yul\":1744:1746   */\n      0x20\n        /* \"#utility.yul\":1739:1742   */\n      dup3\n        /* \"#utility.yul\":1735:1747   */\n      add\n        /* \"#utility.yul\":1728:1747   */\n      swap1\n      pop\n        /* \"#utility.yul\":1387:1753   */\n      swap2\n      swap1\n      pop\n      jump\t// out\n        /* \"#utility.yul\":1759:2178   */\n    tag_29:\n        /* \"#utility.yul\":1925:1929   */\n      0x00\n        /* \"#utility.yul\":1963:1965   */\n      0x20\n        /* \"#utility.yul\":1952:1961   */\n      dup3\n        /* \"#utility.yul\":1948:1966   */\n      add\n        /* \"#utility.yul\":1940:1966   */\n      swap1\n      pop\n        /* \"#utility.yul\":2012:2021   */\n      dup2\n        /* \"#utility.yul\":2006:2010   */\n      dup2\n        /* \"#utility.yul\":2002:2022   */\n      sub\n        /* \"#utility.yul\":1998:1999   */\n      0x00\n        /* \"#utility.yul\":1987:1996   */\n      dup4\n        /* \"#utility.yul\":1983:2000   */\n      add\n        /* \"#utility.yul\":1976:2023   */\n      mstore\n        /* \"#utility.yul\":2040:2171   */\n      tag_65\n        /* \"#utility.yul\":2166:2170   */\n      dup2\n        /* \"#utility.yul\":2040:2171   */\n      tag_40\n      jump\t// in\n    tag_65:\n        /* \"#utility.yul\":2032:2171   */\n      swap1\n      pop\n        /* \"#utility.yul\":1759:2178   */\n      swap2\n      swap1\n      pop\n      jump\t// out\n        /* \"#utility.yul\":2184:2364   */\n    tag_41:\n        /* \"#utility.yul\":2232:2309   */\n      0x4e487b7100000000000000000000000000000000000000000000000000000000\n        /* \"#utility.yul\":2229:2230   */\n      0x00\n        /* \"#utility.yul\":2222:2310   */\n      mstore\n        /* \"#utility.yul\":2329:2333   */\n      0x12\n        /* \"#utility.yul\":2326:2327   */\n      0x04\n        /* \"#utility.yul\":2319:2334   */\n      mstore\n        /* \"#utility.yul\":2353:2357   */\n      0x24\n        /* \"#utility.yul\":2350:2351   */\n      0x00\n        /* \"#utility.yul\":2343:2358   */\n      revert\n        /* \"#utility.yul\":2370:2555   */\n    tag_31:\n        /* \"#utility.yul\":2410:2411   */\n      0x00\n        /* \"#utility.yul\":2427:2447   */\n      tag_68\n        /* \"#utility.yul\":2445:2446   */\n      dup3\n        /* \"#utility.yul\":2427:2447   */\n      tag_35\n      jump\t// in\n    tag_68:\n        /* \"#utility.yul\":2422:2447   */\n      swap2\n      pop\n        /* \"#utility.yul\":2461:2481   */\n      tag_69\n        /* \"#utility.yul\":2479:2480   */\n      dup4\n        /* \"#utility.yul\":2461:2481   */\n      tag_35\n      jump\t// in\n    tag_69:\n        /* \"#utility.yul\":2456:2481   */\n      swap3\n      pop\n        /* \"#utility.yul\":2500:2501   */\n      dup3\n        /* \"#utility.yul\":2490:2525   */\n      tag_70\n      jumpi\n        /* \"#utility.yul\":2505:2523   */\n      tag_71\n      tag_41\n      jump\t// in\n    tag_71:\n        /* \"#utility.yul\":2490:2525   */\n    tag_70:\n        /* \"#utility.yul\":2547:2548   */\n      dup3\n        /* \"#utility.yul\":2544:2545   */\n      dup3\n        /* \"#utility.yul\":2540:2549   */\n      div\n        /* \"#utility.yul\":2535:2549   */\n      swap1\n      pop\n        /* \"#utility.yul\":2370:2555   */\n      swap3\n      swap2\n      pop\n      pop\n      jump\t// out\n        /* \"#utility.yul\":2561:2971   */\n    tag_34:\n        /* \"#utility.yul\":2601:2608   */\n      0x00\n        /* \"#utility.yul\":2624:2644   */\n      tag_73\n        /* \"#utility.yul\":2642:2643   */\n      dup3\n        /* \"#utility.yul\":2624:2644   */\n      tag_35\n      jump\t// in\n    tag_73:\n        /* \"#utility.yul\":2619:2644   */\n      swap2\n      pop\n        /* \"#utility.yul\":2658:2678   */\n      tag_74\n        /* \"#utility.yul\":2676:2677   */\n      dup4\n        /* \"#utility.yul\":2658:2678   */\n      tag_35\n      jump\t// in\n    tag_74:\n        /* \"#utility.yul\":2653:2678   */\n      swap3\n      pop\n        /* \"#utility.yul\":2713:2714   */\n      dup3\n        /* \"#utility.yul\":2710:2711   */\n      dup3\n        /* \"#utility.yul\":2706:2715   */\n      mul\n        /* \"#utility.yul\":2735:2765   */\n      tag_75\n        /* \"#utility.yul\":2753:2764   */\n      dup2\n        /* \"#utility.yul\":2735:2765   */\n      tag_35\n      jump\t// in\n    tag_75:\n        /* \"#utility.yul\":2724:2765   */\n      swap2\n      pop\n        /* \"#utility.yul\":2914:2915   */\n      dup3\n        /* \"#utility.yul\":2905:2912   */\n      dup3\n        /* \"#utility.yul\":2901:2916   */\n      div\n        /* \"#utility.yul\":2898:2899   */\n      dup5\n        /* \"#utility.yul\":2895:2917   */\n      eq\n        /* \"#utility.yul\":2875:2876   */\n      dup4\n        /* \"#utility.yul\":2868:2877   */\n      iszero\n        /* \"#utility.yul\":2848:2931   */\n      or\n        /* \"#utility.yul\":2825:2964   */\n      tag_76\n      jumpi\n        /* \"#utility.yul\":2944:2962   */\n      tag_77\n      tag_37\n      jump\t// in\n    tag_77:\n        /* \"#utility.yul\":2825:2964   */\n    tag_76:\n        /* \"#utility.yul\":2609:2971   */\n      pop\n        /* \"#utility.yul\":2561:2971   */\n      swap3\n      swap2\n      pop\n      pop\n      jump\t// out\n\n    auxdata: 0xa2646970667358221220975710b6ff172b8233f295c063804c86d89392ccafda583c1df6695ed280241f64736f6c63430008190033\n}\n",
				"bytecode": {
					"linkReferences": {},
					"object": "6080604052348015600e575f80fd5b5061036e8061001c5f395ff3fe608060405234801561000f575f80fd5b506004361061004a575f3560e01c80634f2be91f1461004e5780636deebae31461006c578063b53b8d7a1461008a578063f3593cd0146100a8575b5f80fd5b6100566100c6565b6040516100639190610176565b60405180910390f35b6100746100db565b6040516100819190610176565b60405180910390f35b6100926100f0565b60405161009f9190610176565b60405180910390f35b6100b0610149565b6040516100bd9190610176565b60405180910390f35b5f6001545f546100d691906101bc565b905090565b5f6001545f546100eb91906101ef565b905090565b5f8060015403610135576040517f08c379a000000000000000000000000000000000000000000000000000000000815260040161012c9061027c565b60405180910390fd5b6001545f5461014491906102c7565b905090565b5f6001545f5461015991906102f7565b905090565b5f819050919050565b6101708161015e565b82525050565b5f6020820190506101895f830184610167565b92915050565b7f4e487b71000000000000000000000000000000000000000000000000000000005f52601160045260245ffd5b5f6101c68261015e565b91506101d18361015e565b92508282019050808211156101e9576101e861018f565b5b92915050565b5f6101f98261015e565b91506102048361015e565b925082820390508181111561021c5761021b61018f565b5b92915050565b5f82825260208201905092915050565b7f4469766973696f6e206279207a65726f206973206e6f7420616c6c6f776564005f82015250565b5f610266601f83610222565b915061027182610232565b602082019050919050565b5f6020820190508181035f8301526102938161025a565b9050919050565b7f4e487b71000000000000000000000000000000000000000000000000000000005f52601260045260245ffd5b5f6102d18261015e565b91506102dc8361015e565b9250826102ec576102eb61029a565b5b828204905092915050565b5f6103018261015e565b915061030c8361015e565b925082820261031a8161015e565b915082820484148315176103315761033061018f565b5b509291505056fea2646970667358221220975710b6ff172b8233f295c063804c86d89392ccafda583c1df6695ed280241f64736f6c63430008190033",
					"opcodes": "PUSH1 0x80 PUSH1 0x40 MSTORE CALLVALUE DUP1 ISZERO PUSH1 0xE JUMPI PUSH0 DUP1 REVERT JUMPDEST POP PUSH2 0x36E DUP1 PUSH2 0x1C PUSH0 CODECOPY PUSH0 RETURN INVALID PUSH1 0x80 PUSH1 0x40 MSTORE CALLVALUE DUP1 ISZERO PUSH2 0xF JUMPI PUSH0 DUP1 REVERT JUMPDEST POP PUSH1 0x4 CALLDATASIZE LT PUSH2 0x4A JUMPI PUSH0 CALLDATALOAD PUSH1 0xE0 SHR DUP1 PUSH4 0x4F2BE91F EQ PUSH2 0x4E JUMPI DUP1 PUSH4 0x6DEEBAE3 EQ PUSH2 0x6C JUMPI DUP1 PUSH4 0xB53B8D7A EQ PUSH2 0x8A JUMPI DUP1 PUSH4 0xF3593CD0 EQ PUSH2 0xA8 JUMPI JUMPDEST PUSH0 DUP1 REVERT JUMPDEST PUSH2 0x56 PUSH2 0xC6 JUMP JUMPDEST PUSH1 0x40 MLOAD PUSH2 0x63 SWAP2 SWAP1 PUSH2 0x176 JUMP JUMPDEST PUSH1 0x40 MLOAD DUP1 SWAP2 SUB SWAP1 RETURN JUMPDEST PUSH2 0x74 PUSH2 0xDB JUMP JUMPDEST PUSH1 0x40 MLOAD PUSH2 0x81 SWAP2 SWAP1 PUSH2 0x176 JUMP JUMPDEST PUSH1 0x40 MLOAD DUP1 SWAP2 SUB SWAP1 RETURN JUMPDEST PUSH2 0x92 PUSH2 0xF0 JUMP JUMPDEST PUSH1 0x40 MLOAD PUSH2 0x9F SWAP2 SWAP1 PUSH2 0x176 JUMP JUMPDEST PUSH1 0x40 MLOAD DUP1 SWAP2 SUB SWAP1 RETURN JUMPDEST PUSH2 0xB0 PUSH2 0x149 JUMP JUMPDEST PUSH1 0x40 MLOAD PUSH2 0xBD SWAP2 SWAP1 PUSH2 0x176 JUMP JUMPDEST PUSH1 0x40 MLOAD DUP1 SWAP2 SUB SWAP1 RETURN JUMPDEST PUSH0 PUSH1 0x1 SLOAD PUSH0 SLOAD PUSH2 0xD6 SWAP2 SWAP1 PUSH2 0x1BC JUMP JUMPDEST SWAP1 POP SWAP1 JUMP JUMPDEST PUSH0 PUSH1 0x1 SLOAD PUSH0 SLOAD PUSH2 0xEB SWAP2 SWAP1 PUSH2 0x1EF JUMP JUMPDEST SWAP1 POP SWAP1 JUMP JUMPDEST PUSH0 DUP1 PUSH1 0x1 SLOAD SUB PUSH2 0x135 JUMPI PUSH1 0x40 MLOAD PUSH32 0x8C379A000000000000000000000000000000000000000000000000000000000 DUP2 MSTORE PUSH1 0x4 ADD PUSH2 0x12C SWAP1 PUSH2 0x27C JUMP JUMPDEST PUSH1 0x40 MLOAD DUP1 SWAP2 SUB SWAP1 REVERT JUMPDEST PUSH1 0x1 SLOAD PUSH0 SLOAD PUSH2 0x144 SWAP2 SWAP1 PUSH2 0x2C7 JUMP JUMPDEST SWAP1 POP SWAP1 JUMP JUMPDEST PUSH0 PUSH1 0x1 SLOAD PUSH0 SLOAD PUSH2 0x159 SWAP2 SWAP1 PUSH2 0x2F7 JUMP JUMPDEST SWAP1 POP SWAP1 JUMP JUMPDEST PUSH0 DUP2 SWAP1 POP SWAP2 SWAP1 POP JUMP JUMPDEST PUSH2 0x170 DUP2 PUSH2 0x15E JUMP JUMPDEST DUP3 MSTORE POP POP JUMP JUMPDEST PUSH0 PUSH1 0x20 DUP3 ADD SWAP1 POP PUSH2 0x189 PUSH0 DUP4 ADD DUP5 PUSH2 0x167 JUMP JUMPDEST SWAP3 SWAP2 POP POP JUMP JUMPDEST PUSH32 0x4E487B7100000000000000000000000000000000000000000000000000000000 PUSH0 MSTORE PUSH1 0x11 PUSH1 0x4 MSTORE PUSH1 0x24 PUSH0 REVERT JUMPDEST PUSH0 PUSH2 0x1C6 DUP3 PUSH2 0x15E JUMP JUMPDEST SWAP2 POP PUSH2 0x1D1 DUP4 PUSH2 0x15E JUMP JUMPDEST SWAP3 POP DUP3 DUP3 ADD SWAP1 POP DUP1 DUP3 GT ISZERO PUSH2 0x1E9 JUMPI PUSH2 0x1E8 PUSH2 0x18F JUMP JUMPDEST JUMPDEST SWAP3 SWAP2 POP POP JUMP JUMPDEST PUSH0 PUSH2 0x1F9 DUP3 PUSH2 0x15E JUMP JUMPDEST SWAP2 POP PUSH2 0x204 DUP4 PUSH2 0x15E JUMP JUMPDEST SWAP3 POP DUP3 DUP3 SUB SWAP1 POP DUP2 DUP2 GT ISZERO PUSH2 0x21C JUMPI PUSH2 0x21B PUSH2 0x18F JUMP JUMPDEST JUMPDEST SWAP3 SWAP2 POP POP JUMP JUMPDEST PUSH0 DUP3 DUP3 MSTORE PUSH1 0x20 DUP3 ADD SWAP1 POP SWAP3 SWAP2 POP POP JUMP JUMPDEST PUSH32 0x4469766973696F6E206279207A65726F206973206E6F7420616C6C6F77656400 PUSH0 DUP3 ADD MSTORE POP JUMP JUMPDEST PUSH0 PUSH2 0x266 PUSH1 0x1F DUP4 PUSH2 0x222 JUMP JUMPDEST SWAP2 POP PUSH2 0x271 DUP3 PUSH2 0x232 JUMP JUMPDEST PUSH1 0x20 DUP3 ADD SWAP1 POP SWAP2 SWAP1 POP JUMP JUMPDEST PUSH0 PUSH1 0x20 DUP3 ADD SWAP1 POP DUP2 DUP2 SUB PUSH0 DUP4 ADD MSTORE PUSH2 0x293 DUP2 PUSH2 0x25A JUMP JUMPDEST SWAP1 POP SWAP2 SWAP1 POP JUMP JUMPDEST PUSH32 0x4E487B7100000000000000000000000000000000000000000000000000000000 PUSH0 MSTORE PUSH1 0x12 PUSH1 0x4 MSTORE PUSH1 0x24 PUSH0 REVERT JUMPDEST PUSH0 PUSH2 0x2D1 DUP3 PUSH2 0x15E JUMP JUMPDEST SWAP2 POP PUSH2 0x2DC DUP4 PUSH2 0x15E JUMP JUMPDEST SWAP3 POP DUP3 PUSH2 0x2EC JUMPI PUSH2 0x2EB PUSH2 0x29A JUMP JUMPDEST JUMPDEST DUP3 DUP3 DIV SWAP1 POP SWAP3 SWAP2 POP POP JUMP JUMPDEST PUSH0 PUSH2 0x301 DUP3 PUSH2 0x15E JUMP JUMPDEST SWAP2 POP PUSH2 0x30C DUP4 PUSH2 0x15E JUMP JUMPDEST SWAP3 POP DUP3 DUP3 MUL PUSH2 0x31A DUP2 PUSH2 0x15E JUMP JUMPDEST SWAP2 POP DUP3 DUP3 DIV DUP5 EQ DUP4 ISZERO OR PUSH2 0x331 JUMPI PUSH2 0x330 PUSH2 0x18F JUMP JUMPDEST JUMPDEST POP SWAP3 SWAP2 POP POP JUMP INVALID LOG2 PUSH5 0x6970667358 0x22 SLT KECCAK256 SWAP8 JUMPI LT 0xB6 SELFDESTRUCT OR 0x2B DUP3 CALLER CALLCODE SWAP6 0xC0 PUSH4 0x804C86D8 SWAP4 SWAP3 0xCC 0xAF 0xDA PC EXTCODECOPY SAR 0xF6 PUSH10 0x5ED280241F64736F6C63 NUMBER STOP ADDMOD NOT STOP CALLER "
				},
				"gasEstimates": {
					"creation": {
						"codeDepositCost": "175600",
						"executionCost": "218",
						"totalCost": "175818"
					},
					"external": {
						"add()": "infinite",
						"divide()": "infinite",
						"multiply()": "infinite",
						"subtract()": "infinite"
					}
				},
				"methodIdentifiers": {
					"add()": "4f2be91f",
					"divide()": "b53b8d7a",
					"multiply()": "f3593cd0",
					"subtract()": "6deebae3"
				}
			},
			"storageLayout": {
				"storage": [
					{
						"astId": 3,
						"contract": "contracts/cal.sol:Calculator",
						"label": "a",
						"offset": 0,
						"slot": "0",
						"type": "t_uint256"
					},
					{
						"astId": 5,
						"contract": "contracts/cal.sol:Calculator",
						"label": "b",
						"offset": 0,
						"slot": "1",
						"type": "t_uint256"
					}
				],
				"types": {
					"t_uint256": {
						"encoding": "inplace",
						"label": "uint256",
						"numberOfBytes": "32"
					}
				}
			},
			"userdoc": {
				"kind": "user",
				"methods": {},
				"version": 1
			}
		}
	}
}